{
	"data": {
		"bytecode": {
			"linkReferences": {},
			"object": "60806040526100136401000000004261008d565b60008054600160401b600160a01b0319166801000000000000000063ffffffff9390931692909202600160601b600160a01b031916919091176c01000000000000000000000000426001600160401b0316021790556401000000006001556014600255601560035534801561008757600080fd5b506100af565b6000826100aa57634e487b7160e01b600052601260045260246000fd5b500690565b610165806100be6000396000f3fe608060405234801561001057600080fd5b506004361061007d5760003560e01c806388b605351161005b57806388b60535146100b0578063adb61832146100b6578063ae1b1a35146100e7578063fd74d2941461011b57600080fd5b806313348c7814610082578063281f9eff1461009e57806358eef17c146100a7575b600080fd5b61008b60015481565b6040519081526020015b60405180910390f35b61008b60035481565b61008b60025481565b4261008b565b6000546100d29068010000000000000000900463ffffffff1681565b60405163ffffffff9091168152602001610095565b60005461010290600160601b900467ffffffffffffffff1681565b60405167ffffffffffffffff9091168152602001610095565b6000546101029067ffffffffffffffff168156fea2646970667358221220c9bacfc99e19087266e9c79442cf71648c56a8d6c408767e72d18363739c7a7064736f6c634300080b0033",
			"opcodes": "PUSH1 0x80 PUSH1 0x40 MSTORE PUSH2 0x13 PUSH5 0x100000000 TIMESTAMP PUSH2 0x8D JUMP JUMPDEST PUSH1 0x0 DUP1 SLOAD PUSH1 0x1 PUSH1 0x40 SHL PUSH1 0x1 PUSH1 0xA0 SHL SUB NOT AND PUSH9 0x10000000000000000 PUSH4 0xFFFFFFFF SWAP4 SWAP1 SWAP4 AND SWAP3 SWAP1 SWAP3 MUL PUSH1 0x1 PUSH1 0x60 SHL PUSH1 0x1 PUSH1 0xA0 SHL SUB NOT AND SWAP2 SWAP1 SWAP2 OR PUSH13 0x1000000000000000000000000 TIMESTAMP PUSH1 0x1 PUSH1 0x1 PUSH1 0x40 SHL SUB AND MUL OR SWAP1 SSTORE PUSH5 0x100000000 PUSH1 0x1 SSTORE PUSH1 0x14 PUSH1 0x2 SSTORE PUSH1 0x15 PUSH1 0x3 SSTORE CALLVALUE DUP1 ISZERO PUSH2 0x87 JUMPI PUSH1 0x0 DUP1 REVERT JUMPDEST POP PUSH2 0xAF JUMP JUMPDEST PUSH1 0x0 DUP3 PUSH2 0xAA JUMPI PUSH4 0x4E487B71 PUSH1 0xE0 SHL PUSH1 0x0 MSTORE PUSH1 0x12 PUSH1 0x4 MSTORE PUSH1 0x24 PUSH1 0x0 REVERT JUMPDEST POP MOD SWAP1 JUMP JUMPDEST PUSH2 0x165 DUP1 PUSH2 0xBE PUSH1 0x0 CODECOPY PUSH1 0x0 RETURN INVALID PUSH1 0x80 PUSH1 0x40 MSTORE CALLVALUE DUP1 ISZERO PUSH2 0x10 JUMPI PUSH1 0x0 DUP1 REVERT JUMPDEST POP PUSH1 0x4 CALLDATASIZE LT PUSH2 0x7D JUMPI PUSH1 0x0 CALLDATALOAD PUSH1 0xE0 SHR DUP1 PUSH4 0x88B60535 GT PUSH2 0x5B JUMPI DUP1 PUSH4 0x88B60535 EQ PUSH2 0xB0 JUMPI DUP1 PUSH4 0xADB61832 EQ PUSH2 0xB6 JUMPI DUP1 PUSH4 0xAE1B1A35 EQ PUSH2 0xE7 JUMPI DUP1 PUSH4 0xFD74D294 EQ PUSH2 0x11B JUMPI PUSH1 0x0 DUP1 REVERT JUMPDEST DUP1 PUSH4 0x13348C78 EQ PUSH2 0x82 JUMPI DUP1 PUSH4 0x281F9EFF EQ PUSH2 0x9E JUMPI DUP1 PUSH4 0x58EEF17C EQ PUSH2 0xA7 JUMPI JUMPDEST PUSH1 0x0 DUP1 REVERT JUMPDEST PUSH2 0x8B PUSH1 0x1 SLOAD DUP2 JUMP JUMPDEST PUSH1 0x40 MLOAD SWAP1 DUP2 MSTORE PUSH1 0x20 ADD JUMPDEST PUSH1 0x40 MLOAD DUP1 SWAP2 SUB SWAP1 RETURN JUMPDEST PUSH2 0x8B PUSH1 0x3 SLOAD DUP2 JUMP JUMPDEST PUSH2 0x8B PUSH1 0x2 SLOAD DUP2 JUMP JUMPDEST TIMESTAMP PUSH2 0x8B JUMP JUMPDEST PUSH1 0x0 SLOAD PUSH2 0xD2 SWAP1 PUSH9 0x10000000000000000 SWAP1 DIV PUSH4 0xFFFFFFFF AND DUP2 JUMP JUMPDEST PUSH1 0x40 MLOAD PUSH4 0xFFFFFFFF SWAP1 SWAP2 AND DUP2 MSTORE PUSH1 0x20 ADD PUSH2 0x95 JUMP JUMPDEST PUSH1 0x0 SLOAD PUSH2 0x102 SWAP1 PUSH1 0x1 PUSH1 0x60 SHL SWAP1 DIV PUSH8 0xFFFFFFFFFFFFFFFF AND DUP2 JUMP JUMPDEST PUSH1 0x40 MLOAD PUSH8 0xFFFFFFFFFFFFFFFF SWAP1 SWAP2 AND DUP2 MSTORE PUSH1 0x20 ADD PUSH2 0x95 JUMP JUMPDEST PUSH1 0x0 SLOAD PUSH2 0x102 SWAP1 PUSH8 0xFFFFFFFFFFFFFFFF AND DUP2 JUMP INVALID LOG2 PUSH5 0x6970667358 0x22 SLT KECCAK256 0xC9 0xBA 0xCF 0xC9 SWAP15 NOT ADDMOD PUSH19 0x66E9C79442CF71648C56A8D6C408767E72D183 PUSH4 0x739C7A70 PUSH5 0x736F6C6343 STOP ADDMOD SIGNEXTEND STOP CALLER "
		},
		"gasEstimates": {
			"creation": {
				"codeDepositCost": "71400",
				"executionCost": "90850",
				"totalCost": "162250"
			},
			"external": {
				"blockTimestamp()": "2346",
				"blockTimestamp2()": "2374",
				"fds()": "2285",
				"fds2()": "2329",
				"fds3()": "2307",
				"fdsf()": "180",
				"timeStart()": "2379"
			}
		},
		"methodIdentifiers": {
			"blockTimestamp()": "adb61832",
			"blockTimestamp2()": "ae1b1a35",
			"fds()": "13348c78",
			"fds2()": "58eef17c",
			"fds3()": "281f9eff",
			"fdsf()": "88b60535",
			"timeStart()": "fd74d294"
		}
	},
	"abi": [
		{
			"inputs": [],
			"stateMutability": "nonpayable",
			"type": "constructor"
		},
		{
			"inputs": [],
			"name": "blockTimestamp",
			"outputs": [
				{
					"internalType": "uint32",
					"name": "",
					"type": "uint32"
				}
			],
			"stateMutability": "view",
			"type": "function"
		},
		{
			"inputs": [],
			"name": "blockTimestamp2",
			"outputs": [
				{
					"internalType": "uint64",
					"name": "",
					"type": "uint64"
				}
			],
			"stateMutability": "view",
			"type": "function"
		},
		{
			"inputs": [],
			"name": "fds",
			"outputs": [
				{
					"internalType": "uint256",
					"name": "",
					"type": "uint256"
				}
			],
			"stateMutability": "view",
			"type": "function"
		},
		{
			"inputs": [],
			"name": "fds2",
			"outputs": [
				{
					"internalType": "uint256",
					"name": "",
					"type": "uint256"
				}
			],
			"stateMutability": "view",
			"type": "function"
		},
		{
			"inputs": [],
			"name": "fds3",
			"outputs": [
				{
					"internalType": "uint256",
					"name": "",
					"type": "uint256"
				}
			],
			"stateMutability": "view",
			"type": "function"
		},
		{
			"inputs": [],
			"name": "fdsf",
			"outputs": [
				{
					"internalType": "uint256",
					"name": "",
					"type": "uint256"
				}
			],
			"stateMutability": "view",
			"type": "function"
		},
		{
			"inputs": [],
			"name": "timeStart",
			"outputs": [
				{
					"internalType": "uint64",
					"name": "",
					"type": "uint64"
				}
			],
			"stateMutability": "view",
			"type": "function"
		}
	]
}